:100000000C945E000C9486000C9486000C94860080
:100010000C9486000C9486000C9486000C94860048
:100020000C9486000C9486000C9486000C94860038
:100030000C9486000C9486000C9486000C94860028
:100040000C94FD010C9486000C9486000C948600A0
:100050000C9486000C9486000C9486000C94860008
:100060000C9486000C94860000000007000201003A
:100070000003040600000000000000000102040864
:100080001020408001020408102001020408102002
:10009000040404040404040402020202020203032E
:1000A0000303030300000000250028002B000000CC
:1000B0000000240027002A00F101F90111241FBECD
:1000C000CFEFD8E0DEBFCDBF13E0A0E0B1E0E6E7C0
:1000D000F2E102C005900D92A433B107D9F723E0F5
:1000E000A4E3B3E001C01D92A435B207E1F710E02C
:1000F000CAEBD0E004C02297FE010E948807C83BEB
:10010000D107C9F70E9483030C942E090C940000B8
:100110002F923F924F925F926F927F928F929F9217
:10012000AF92BF92CF92DF92EF92FF920F931F9305
:10013000CF93DF93CDB7DEB761970FB6F894DEBFEC
:100140000FBECDBF90E08A83C72ED12C7B83162FA4
:10015000198A188A2CE2622E772473944C01AA24FF
:1001600097FCA094BA2C8C829D82AE82BF824601FD
:10017000AA2497FCA094BA2C88869986AA86BB8666
:10018000862E912CA12CB12C8C869D86AE86BF86A6
:10019000242E312C412C512CE12CF12C8889998969
:1001A0008E0D9F1DB3010E942607012F2B814A81CE
:1001B000BC0184E393E00E94FA0424E6E20EF11C01
:1001C0008CE2E81681E0F80649F7EE24E394F12C7E
:1001D000B701882777FD8095982F0E94E30520E0DE
:1001E00030E040E05EE30E94AF060E943A055B010A
:1001F0006C016C817D818E819F810E94E305A60147
:1002000095010E944D050E94B505962E6885798559
:100210008A859B850E94E305A60195010E944D05F4
:100220000E94B505862E6C857D858E859F850E94F2
:10023000E305A60195010E944D050E94B50569835D
:10024000A888B988AE18BF08B7FE07C0C12CD12C4A
:10025000A888B988AE0CBF1C19C0C12CD12CC6010E
:100260008A0D9B1DB3010E9426070981282D492D67
:10027000BC0184E393E00E94FA0494E6C90ED11C09
:10028000ACE2CA16A1E0DA0651F7E0CFC6018A0D4A
:100290009B1DB3010E9426070981282D492DBC0111
:1002A00084E393E00E94FA04B4E6CB0ED11CECE2A6
:1002B000CE16E1E0DE0651F7FFEFEF1AFF0A23E367
:1002C000E216F10409F084CF84E393E00E9437043E
:1002D000C201B1010E946A02888999890196998BAD
:1002E000888B8C32914009F057CF61960FB6F89405
:1002F000DEBF0FBECDBFDF91CF911F910F91FF9059
:10030000EF90DF90CF90BF90AF909F908F907F90B5
:100310006F905F904F903F902F9008951F93CF93D1
:10032000DF93182FC0E0D0E020E030E0A901BE014B
:1003300084E393E00E941B052196CC3281E0D8072C
:1003400099F7112339F084E393E0DF91CF911F9166
:100350000C943704DF91CF911F91089580E00E94A3
:10036000CD020E94900384E393E00E942A0481E07E
:100370000C948E016AE870E080E090E00E9498039F
:10038000FB01EE0FFF1FEE0FFF1FE65FFE4F6081C8
:100390007181828193810895CF92DF92EF92FF92D3
:1003A000CF930E94BA010E94BA016B017C012CE339
:1003B00030E040E050E068E270E080E090E00E94D1
:1003C000BC03C62F462FC701B6010E9488004C2FE0
:1003D000C701B601CF91FF90EF90DF90CF900C94C2
:1003E000880023E048E06CE271E084E393E00C9441
:1003F000D80384E393E00C9422041F920F920FB66B
:100400000F9211242F933F938F939F93AF93BF939A
:100410008091480390914903A0914A03B0914B0306
:100420003091470323E0230F2D3720F40196A11DBF
:10043000B11D05C026E8230F0296A11DB11D209312
:1004400047038093480390934903A0934A03B093D2
:100450004B0380914C0390914D03A0914E03B091BA
:100460004F030196A11DB11D80934C0390934D0342
:10047000A0934E03B0934F03BF91AF919F918F9183
:100480003F912F910F900FBE0F901F9018953FB77F
:10049000F89480914C0390914D03A0914E03B0913C
:1004A0004F0326B5A89B05C02F3F19F00196A11D4B
:1004B000B11D3FBF6627782F892F9A2F620F711DBC
:1004C000811D911D42E0660F771F881F991F4A9575
:1004D000D1F70895CF92DF92EF92FF92CF93DF93FF
:1004E0006B017C010E944702EB01C114D104E104BD
:1004F000F10489F00E9482030E9447026C1B7D0B6D
:10050000683E734090F381E0C81AD108E108F10811
:10051000C851DC4FEACFDF91CF91FF90EF90DF9091
:10052000CF900895789484B5826084BD84B581604D
:1005300084BD85B5826085BD85B5816085BDEEE6EB
:10054000F0E0808181608083E1E8F0E010828081CA
:1005500082608083808181608083E0E8F0E0808138
:1005600081608083E1EBF0E0808184608083E0EB58
:10057000F0E0808181608083EAE7F0E08081846040
:10058000808380818260808380818160808380819C
:10059000806880831092C10008958E3008F08E50DC
:1005A00087702091320390E4299F90011124822BBF
:1005B00080937C0080917A00806480937A0080919F
:1005C0007A0086FDFCCF809178002091790090E040
:1005D000922B0895833081F028F4813099F0823095
:1005E000A1F008958630A9F08730B9F08430D1F4B5
:1005F000809180008F7D03C0809180008F778093F1
:100600008000089584B58F7702C084B58F7D84BD46
:1006100008958091B0008F7703C08091B0008F7DE6
:100620008093B0000895CF93DF9390E0FC01E458ED
:10063000FF4F2491FC01E057FF4F8491882349F13B
:1006400090E0880F991FFC01E255FF4FA591B491EE
:100650008C559F4FFC01C591D4919FB7611108C083
:10066000F8948C91209582238C93888182230AC0F0
:10067000623051F4F8948C91322F309583238C930F
:100680008881822B888304C0F8948C91822B8C9370
:100690009FBFDF91CF9108950F931F93CF93DF9367
:1006A0001F92CDB7DEB7282F30E0F901E859FF4F90
:1006B0008491F901E458FF4F1491F901E057FF4F7D
:1006C00004910023C9F0882321F069830E94EA0283
:1006D0006981E02FF0E0EE0FFF1FEC55FF4FA59171
:1006E000B4919FB7F8948C91611103C01095812348
:1006F00001C0812B8C939FBF0F90DF91CF911F91F1
:100700000F91089508950E9492020E94AE01C0E0E8
:10071000D0E00E94CC012097E1F30E940000F9CFC5
:10072000009729F0BC0180E090E00C941609089530
:10073000CF93DF9300D000D0CDB7DEB79B01AC01E3
:10074000611571058105910569F069833A834B83D1
:100750005C830E94110929813A814B815C810E944E
:100760003A0703C060E070E0CB010F900F900F904C
:100770000F90DF91CF910895CF92DF92EF92FF9289
:100780006B017C01621773078407950764F4CA0143
:10079000B9016C197D098E099F090E9498036C0D9F
:1007A0007D1D8E1D9F1DFF90EF90DF90CF900895CF
:1007B000FF920F931F93CF93DF93EC01F22E798377
:1007C00068838B01000F111F060F171F1B830A83FD
:1007D0004C832B8750E0FA01E057FF4FE491F0E0A3
:1007E000EE0FFF1FEC55FF4F85919491998B888BED
:1007F000FA01E458FF4F44914A8BC8010E949B07BD
:100800009F838E83009729F0A80160E070E00E942A
:100810001F09F0FE04C081E0888719860BC0F2FE34
:1008200006C081E0888782E089871A8605C018861D
:1008300081E0898782E08A87DF91CF911F910F91B4
:10084000FF900895FC0186819781009711F00C9428
:1008500033080895CF93DF93EC0161E08C810E940F
:10086000130360E08C81DF91CF910C944C03CF9205
:10087000DF92EF92FF920F931F93CF93DF93CDB749
:10088000DEB729970FB6F894DEBF0FBECDBF8C013F
:10089000DC0116968D919C911797892B09F49BC0CA
:1008A0000E944702F801C484D584E684F7846C1959
:1008B0007D098E099F09623371058105910580F3D9
:1008C000F894828193819A838983A681B7817D017F
:1008D000EFEFEE1AFE0A8C918987D8011B969C9146
:1008E0001B9750960D90BC91A02DF801828991FF25
:1008F0002EC09C91982B98879C91809589238F83FB
:100900008F818E8388E08D8358856F8149853D81F5
:100910002E8189819A81F7015C9347FD252F3A95B5
:100920002C93262F39F0441F00C000006C93000068
:1009300000C0F2CF38E041916C930000019761F75D
:10094000F801B18BA08B49873D832E8338C09C91E1
:10095000982B98879C91809589238F838F818C8396
:1009600088E08B8358856F8149853B812C81898103
:100970009A81F7015C9347FD252F00C000C02C939E
:1009800000C000C000C000C000C06C930000262F53
:100990003A9541F0441F000000C000C000C000C0F4
:1009A00000C0E8CF38E0419100C06C9300C00197CF
:1009B00009F7F801B18BA08B49873B832C839A837D
:1009C000898378940E944702D8011C966D937D9389
:1009D0008D939C931F9729960FB6F894DEBF0FBE98
:1009E000CDBFDF91CF911F910F91FF90EF90DF90DE
:1009F000CF9008950F93FC0180819181681779074A
:100A0000C0F4DB01AA0FBB1FA60FB71F8681978119
:100A10008A0F9B1F3085DC01A30FB11D4C933185DC
:100A2000DC01A30FB11D2C932285FC01E20FF11D07
:100A300000830F910895FC018081918168177907E7
:100A4000C0F4DB01AA0FBB1FA60FB71F86819781D9
:100A50008A0F9B1F5085DC01A50FB11D4C9341856A
:100A6000DC01A40FB11D3C933285FC01E30FF11DA5
:100A70002083089556D180F09F3740F491110EF4F1
:100A800068C160E070E080E89FE3089526F01B16DF
:100A9000611D711D811DD8C0F2C00CD00FC107D1DE
:100AA00040F0FED030F021F45F3F19F0C7C0511183
:100AB00050C1F3C014D198F39923C9F35523B1F36E
:100AC000951B550BBB27AA2762177307840738F0BD
:100AD0009F5F5F4F220F331F441FAA1FA9F333D01C
:100AE0000E2E3AF0E0E830D091505040E695001CD0
:100AF000CAF729D0FE2F27D0660F771F881FBB1F8C
:100B0000261737074807AB07B0E809F0BB0B802D65
:100B1000BF01FF2793585F4F2AF09E3F510568F0B1
:100B20008DC017C15F3FECF3983EDCF38695779557
:100B30006795B795F7959F5FC9F7880F911D9695B3
:100B4000879597F90895E1E0660F771F881FBB1F0F
:100B5000621773078407BA0720F0621B730B840BBC
:100B6000BA0BEE1F88F7E0950895C1D088F09F5723
:100B700090F0B92F9927B751A0F0D1F0660F771FE9
:100B8000881F991F1AF0BA95C9F712C0B13081F0C9
:100B9000DFD0B1E00895DCC0672F782F8827B85FD9
:100BA00039F0B93FCCF3869577956795B395D9F72A
:100BB0003EF490958095709561957F4F8F4F9F4F34
:100BC0000895E89409C097FB3EF490958095709540
:100BD00061957F4F8F4F9F4F9923A9F0F92F96E989
:100BE000BB279395F695879577956795B795F111FE
:100BF000F8CFFAF4BB0F11F460FF1BC06F5F7F4F9B
:100C00008F4F9F4F16C0882311F096E911C07723AC
:100C100021F09EE8872F762F05C0662371F096E8B5
:100C2000862F70E060E02AF09A95660F771F881F84
:100C3000DAF7880F9695879597F9089597F99F6742
:100C400080E870E060E00895882371F4772321F054
:100C50009850872B762F07C0662311F499270DC073
:100C60009051862B70E060E02AF09A95660F771F0E
:100C7000881FDAF7880F9695879597F908959F3F13
:100C800031F0915020F4879577956795B795880F47
:100C9000911D9695879597F908959FEF80EC08959B
:100CA00000240A941616170618060906089500244B
:100CB0000A9412161306140605060895092E0394C5
:100CC000000C11F4882352F0BB0F40F4BF2B11F439
:100CD00060FF04C06F5F7F4F8F4F9F4F089557FD98
:100CE0009058440F551F59F05F3F71F04795880F9A
:100CF00097FB991F61F09F3F79F087950895121631
:100D000013061406551FF2CF4695F1DF08C01616DC
:100D100017061806991FF1CF86957105610508948D
:100D20000895E5DFA0F0BEE7B91788F4BB279F3828
:100D300060F41616B11D672F782F8827985FF7CFBC
:100D4000869577956795B11D93959639C8F3089563
:100D5000E894BB2766277727CB0197F908950BD036
:100D6000ADCF9EDF28F0A3DF18F0952309F066CF02
:100D700094CF1124EECFB3DFA0F3959FD1F3950F5D
:100D800050E0551F629FF001729FBB27F00DB11D0F
:100D9000639FAA27F00DB11DAA1F649F6627B00D9F
:100DA000A11D661F829F2227B00DA11D621F739F88
:100DB000B00DA11D621F839FA00D611D221F749F96
:100DC0003327A00D611D231F849F600D211D822FDD
:100DD000762F6A2F11249F5750408AF0E1F0882324
:100DE0004AF0EE0FFF1FBB1F661F771F881F915031
:100DF0005040A9F79E3F510570F020CFAACF5F3F2A
:100E0000ECF3983EDCF3869577956795B795F79563
:100E1000E7959F5FC1F7FE2B880F911D96958795EB
:100E200097F90895AA1BBB1B51E107C0AA1FBB1F5E
:100E3000A617B70710F0A61BB70B881F991F5A9566
:100E4000A9F780959095BC01CD01089597FB072ED9
:100E500016F4009407D077FD09D00E94120707FC12
:100E600005D03EF4909581959F4F089570956195BA
:100E70007F4F0895052E97FB1EF400940E945107A2
:100E800057FD07D00E94640707FC03D04EF40C9472
:100E9000510750954095309521953F4F4F4F5F4FEB
:100EA000089590958095709561957F4F8F4F9F4FD6
:100EB00008950E948C07A59F900DB49F900DA49F4C
:100EC000800D911D11240895A1E21A2EAA1BBB1BAF
:100ED000FD010DC0AA1FBB1FEE1FFF1FA217B30706
:100EE000E407F50720F0A21BB30BE40BF50B661F1C
:100EF000771F881F991F1A9469F7609570958095E0
:100F000090959B01AC01BD01CF010895EE0FFF1F2D
:100F10000590F491E02D0994A29FB001B39FC00108
:100F2000A39F700D811D1124911DB29F700D811D15
:100F30001124911D0895CF93DF938230910510F411
:100F400082E090E0E0915203F091530320E030E022
:100F5000A0E0B0E0309739F140815181481759073E
:100F6000B8F04817590771F482819381109729F0DE
:100F700013969C938E9312972CC090935303809357
:100F8000520327C02115310531F04217530718F0DD
:100F9000A901DB0101C0EF019A01BD01DF0102805F
:100FA000F381E02DD7CF21153105F9F0281B390B3E
:100FB0002430310580F48A819B816115710521F00F
:100FC000FB019383828304C0909353038093520365
:100FD000FE01329644C0FE01E20FF31F819391930C
:100FE00022503109398328833AC02091500330912F
:100FF0005103232B41F420910201309103013093DE
:1010000051032093500320910001309101012115DB
:10101000310541F42DB73EB74091040150910501CF
:10102000241B350BE0915003F0915103E217F307B5
:10103000A0F42E1B3F0B2817390778F0AC014E5F48
:101040005F4F2417350748F04E0F5F1F5093510331
:10105000409350038193919302C0E0E0F0E0CF0110
:10106000DF91CF910895CF93DF93009709F487C064
:10107000FC01329713821282C0915203D091530324
:10108000209781F420813181280F391F80915003EE
:10109000909151038217930779F5F0935103E093F0
:1010A00050036DC0DE0120E030E0AE17BF0750F402
:1010B00012964D915C9113979D014115510509F1CF
:1010C000DA01F3CFB383A28340815181840F951F4E
:1010D0008A179B0771F48D919C911197840F951F2E
:1010E00002969183808312968D919C91139793839E
:1010F00082832115310529F4F0935303E0935203C1
:101100003EC0D9011396FC93EE9312974D915D91D9
:10111000A40FB51FEA17FB0779F480819181840F32
:10112000951F0296D90111969C938E93828193818B
:1011300013969C938E931297E0E0F0E08A819B8156
:10114000009719F0FE01EC01F9CFCE01029628813B
:101150003981820F931F209150033091510328173A
:10116000390769F4309729F410925303109252030F
:1011700002C013821282D0935103C0935003DF91B7
:10118000CF9108958F929F92AF92BF92CF92DF92AC
:10119000EF92FF92CF93DF93EC01688179818A818E
:1011A0009B81611571058105910521F464E279ED5A
:1011B0008BE597E02DE133EF41E050E00E943A07E4
:1011C00049015A019B01AC01A7EAB1E40E94590709
:1011D0006B017C01ACEEB4EFA50194010E942909DA
:1011E000C60ED71EE81EF91EF7FE06C081E0C81A1B
:1011F000D108E10880E8F80AC882D982EA82FB8235
:10120000C701B6019F77DF91CF91FF90EF90DF90FC
:10121000CF90BF90AF909F908F9008950E94C2088A
:10122000089586E091E00E94C20808956093060147
:101230007093070180930801909309010895DC01E0
:1012400001C06D9341505040E0F70895B7FF0C94F2
:1012500059070E945907821B930B089510E0CAEBAF
:10126000D0E004C0FE010E9488072296CC3BD10743
:06127000C9F7F894FFCF5E
:1012760000005403200001000000800000008B00E5
:101286000000CD000000FF000000006400000080A8
:101296000000808000008B8B0000FFBF0000D1CED5
:1012A60000009AFA000000FF00007FFF0000FFFF29
:1012B6000000FFFF000070191900FF901E00AAB27F
:1012C6002000228B2200578B2E004F4F2F0032CD4D
:1012D600320071B33C00D0E04000E1694100B482C5
:1012E60046008B3D4800CCD1480082004B002F6B56
:1012F6005500A09E5F00ED956400AACD6600696961
:101306006900CD5A6A00238E6B0090807000998820
:101316007700EE687B0000FC7C0000FF7F00D4FFB6
:101326007F000000800080008000008080008080B8
:101336008000EBCE8700FACE8700E22B8A00000001
:101346008B008B008B0013458B008FBC8F0090EEBB
:101356009000DB709300D300940098FB9800CC3289
:10136600990032CD9A002D52A0002A2AA500A9A9DB
:10137600A900E6D8AD002FFFAD00EEEEAF00DEC44B
:10138600B000E6E0B0002222B2000B86B800D355CA
:10139600BA008F8FBC006BB7BD00C0C0C0008515FA
:1013A600C7005C5CCD003F85CD001E69D2008CB4C1
:1013B600D200D3D3D300D8BFD800D670DA0020A588
:1013C600DA009370DB003C14DC00DCDCDC00DDA022
:1013D600DD0087B8DE00FFFFE000FAE6E6007A9659
:1013E600E900EE82EE00AAE8EE008080F0008CE6CE
:1013F600F000FFF8F000F0FFF000FFFFF00060A43F
:10140600F400B3DEF500DCF5F500F5F5F500FAFFBE
:10141600F500FFF8F8007280FA00D7EBFA00E6F064
:10142600FA00D2FAFA00E6F5FD000000FF00FF0020
:10143600FF00FF00FF009314FF000045FF00476315
:10144600FF00B469FF00507FFF00008CFF007AA008
:10145600FF0000A5FF00C1B6FF00CBC0FF0000D70C
:10146600FF00B9DAFF00ADDEFF00B5E4FF00C4E41B
:10147600FF00E1E4FF00CDEBFF00D5EFFF00F5F044
:10148600FF00EEF5FF00DCF8FF00CDFAFF00F0FAF2
:10149600FF00FAFAFF0000FFFF00E0FFFF00F0FF89
:0414A600FF00010042
:00000001FF
